:10000300E4F50875A0FF1200AA8F0AE50AB40113EC
:100013007F147E0012011630B0FD7F147E001201A2
:1000230016B2A0E50AB4021B7F147E00120116AFBC
:10003300A07801EF08800123D8FDF5A07F147E008E
:10004300120116E50AB4031B7F147E00120116AFDA
:10005300A07801EF08800103D8FDF5A07F147E008E
:10006300120116E50AB4049E1200AA8F0AAFA07803
:1000730001EF08800123D8FDF5A07FC27E011201A4
:100083001620B11C7F0A7E0012011630B1FD7F0AD3
:100093007E00120116B2A7E50A6404700302000988
:0700A300E50A60C402000938
:10011600EF4E600F7D027CC7DCFEDDFCEF1F70F04A
:030126001E80ED4B
:0101290022B3
:1000AA00E4F50920B1157F14FE12011630B1FD7F67
:1000BA00147E00120116750901804E20B0167F14B5
:1000CA007E0012011630B0FD7F147E0012011675F3
:1000DA000902803520B2167F147E0012011630B252
:1000EA00FD7F147E00120116750903801C20B316C9
:1000FA007F147E0012011630B3FD7F147E001201B8
:0B010A00167509048003E4F509AF0935
:0101150022C7
:0300000002012AD0
:0C012A00787FE4F6D8FD75810A0200031E
:00000001FF
